:100000005DC0000080C000007EC000007CC0000019
:100010007AC0000078C0000076C0000074C0000004
:1000200072C00000DEC000006EC0000076C100009B
:100030006AC0000068C0000066C0000064C0000024
:1000400052C3000060C000008FC50000BFC50000A3
:100050005AC0000058C0000056C0000054C0000044
:1000600052C0000050C00000000000080002010063
:100070000003040700000000000000000102040863
:100080001020408001020408102001020408102002
:10009000040404040404040402020202020203032E
:1000A0000303030300000000250028002B000000CC
:1000B0000000240027002A0094000B0611241FBE14
:1000C000CFEFD8E0DEBFCDBF12E0A0E0B1E0ECE3BF
:1000D000FEE002C005900D92A438B107D9F723E0E5
:1000E000A4E8B2E001C01D92A236B207E1F710E029
:1000F000CEE5D0E003C02197FE0189D6CC35D107EB
:10010000D1F7D4D099C67CCF70E023E0829FC001A4
:1001100011248C579D4F52C270E023E0829FC00192
:1001200011248C579D4F86C284E892E0AFC1E091C4
:100130005D03F0915E03E050FF4F6281653B08F084
:1001400064EB80E0E9DF80915D0390915E03209194
:100150006E0230916F02820F931F20910001309147
:1001600001012817390720F480916A0290916B02EF
:1001700090935E0380935D030895CF93DF93109275
:10018000880210928702EDE5F3E083E0DF011D9223
:100190008A95E9F7C9E5D3E081E08E8381E090E0BC
:1001A000A0E0B0E088839983AA83BB8364E080E009
:1001B000ABDF80916C0290916D029D838C83DF9107
:1001C000CF910895089540E855E260E070E090E036
:1001D00080E000C0892B21F426E08CEB92E064C41F
:1001E00008951F920F920FB60F9211242F933F93F1
:1001F0004F935F936F937F938F939F93AF93BF932F
:10020000EF93FF9383E88093B200809189028F5F20
:1002100080938902853019F4109289022FD0FF91C2
:10022000EF91BF91AF919F918F917F916F915F916E
:100230004F913F912F910F900FBE0F901F901895E7
:1002400083E88093B200A0E7B0E08C918E7F8C931E
:10025000E0EBF0E080818C7F8083E1EBF0E0808157
:10026000877F808380818660808380818E7F80838A
:100270008C9181608C93089581E0089580918A0229
:1002800091E0980F90938A02882349F021E030E0B2
:1002900030938C0220938B0280938A020895789485
:1002A00046DFF89480918A028150F6CFCF93DF9396
:1002B000109261031092600360D285DFC0917002DA
:1002C000D09171021982188258DFF894B9DF81E069
:1002D00028813981232B09F080E080936003789492
:1002E000789480916003811107C06CDFF89490E0EE
:1002F00080E0DF91CF91089581E028813981232B1F
:1003000009F480E0809361039091610381E0911191
:1003100080E080936003B0DFE4CF1F920F920FB6AE
:100320000F9211242F933F934F935F936F937F937B
:100330008F939F93AF93BF93EF93FF9380918E0220
:1003400087FF27C0109285001092840080918E0252
:100350008F5F80938E0280918E02082E000C990B85
:1003600020918D022817190629F024F080918E0221
:100370008C30D4F180918400909185000496803473
:100380009C4908F479C0809184009091850004967E
:1003900075C080918E02082E000C990B20918D0261
:1003A0002817190699F294F2E0918E028E2FEE0F23
:1003B000990BFC01EE0FFF1FE80FF91FE157FD4FEE
:1003C000808186FFC3CFE0918E028E2FEE0F990BB6
:1003D000FC01EE0FFF1FE80FF91FE157FD4F808171
:1003E00060E08F736AD2B2CF209184003091850093
:1003F000E0918E028E2FEE0F990BFC01EE0FFF1F86
:10040000E80FF91FE157FD4F81819281820F931F01
:100410009093890080938800E0918E028E2FEE0FDA
:10042000990BFC01EE0FFF1FE80FF91FE157FD4F7D
:10043000808186FF10C0E0918E028E2FEE0F990B07
:10044000FC01EE0FFF1FE80FF91FE157FD4F808100
:1004500061E08F7332D2FF91EF91BF91AF919F9185
:100460008F917F916F915F914F913F912F910F905D
:100470000FBE0F901F90189580E49CE9909389001F
:10048000809388008FEF80938E02E5CFFC019091DE
:100490008D029C3098F481E0890F80938D029083C7
:1004A000892F90E0FC01EE0FFF1FE80FF91FE157C5
:1004B000FD4F88EB9BE09283818308958FEF8083CB
:1004C0000895DF92EF92FF920F931F93CF93DF93E4
:1004D000EC01D62E7A01890188818C3008F065C044
:1004E00061E08D2DAED18881282F30E0F901EE0F2B
:1004F000FF1FE20FF31FE157FD4F9D2D9F7360819A
:10050000607C692B608320E232E02E193F0937FFBF
:1005100002C02D5F3F4F3595279535952795298347
:1005200020E639E0201B310B37FF02C02D5F3F4F23
:1005300035952795359527952A832CE0622F13D47E
:10054000829FB001112430E020E0AB01420F531F25
:10055000FA01EE0FFF1FE40FF51FE157FD4F9081E9
:1005600096FD16C02F5F3F4F2C30310571F781117A
:100570000FC01092800082E080938100109285006D
:1005800010928400B19A80916F00826080936F0016
:10059000E8818E2F90E0FC01EE0FFF1FE80FF91F9E
:1005A000E157FD4F8081806480838881DF91CF9106
:1005B0001F910F91FF90EF90DF90089520E639E0B2
:1005C00040E252E07ECFDC01EC91EC3090F51196E8
:1005D0008C91119728E830E0281B310987FD33956D
:1005E000220F331F220F331F6217730784F01296F6
:1005F0008C9128E532E0281B310987FD3395220FC5
:10060000331F220F331F621773070CF49B01225014
:100610003109220F331F4FB7F8948E2F90E0FC0161
:10062000EE0FFF1FE80FF91FE157FD4F32832183C3
:100630004FBF0895AF92BF92CF92DF92EF92FF9299
:100640000F931F93CF93DF93EC01603282E0780722
:100650000CF03DC0653B710514F064EB70E08981DE
:1006600048E8A42EB12CA81AB10887FDB394AA0CAF
:10067000BB1CAA0CBB1C0B2C000CCC08DD0877FFA4
:1006800002C070E060E0072E000C880B990B2A81F5
:1006900008E512E0021B110927FD1395000F111F39
:1006A000000F111F012E000C220B330B3F932F93D1
:1006B0001F930F9314EBE12EF12C00E010E020E0EB
:1006C00030E0A90102D30F900F900F900F90CE0150
:1006D000DF91CF911F910F91FF90EF90DF90CF901E
:1006E000BF90AF9070CF1F920F920FB60F92112450
:1006F0002F933F938F939F93AF93BF938091B402B7
:100700009091B502A091B602B091B7023091B302B8
:1007100023E0230F2D3758F50196A11DB11D20931D
:10072000B3028093B4029093B502A093B602B09343
:10073000B7028091B8029091B902A091BA02B0912B
:10074000BB020196A11DB11D8093B8029093B9021E
:10075000A093BA02B093BB02BF91AF919F918F91CA
:100760003F912F910F900FBE0F901F90189526E884
:10077000230F0296A11DB11DD2CF789484B582605B
:1007800084BD84B5816084BD85B5826085BD85B535
:10079000816085BDEEE6F0E0808181608083E1E8E4
:1007A000F0E010828081826080838081816080831C
:1007B000E0E8F0E0808181608083E1EBF0E080811F
:1007C00084608083E0EBF0E0808181608083EAE7F1
:1007D000F0E080818460808380818260808380817A
:1007E000816080838081806880831092C100089539
:1007F000833081F028F4813099F08230A9F0089597
:100800008730A9F08830C9F08430B1F4809180003D
:100810008F7D03C0809180008F7780938000089542
:1008200084B58F7784BD089584B58F7DFBCF80918B
:10083000B0008F778093B00008958091B0008F7DD5
:10084000F9CFCF93DF9390E0FC01E458FF4F249160
:1008500080579F4FFC0184918823C9F090E0880F56
:10086000991FFC01E255FF4FA591B491FC01EC5595
:10087000FF4FC591D49161110DC09FB7F8948C9131
:10088000209582238C938881282328839FBFDF9122
:10089000CF910895623051F49FB7F8943C91822F24
:1008A000809583238C93E8812E2BEFCF8FB7F8941C
:1008B000EC912E2B2C938FBFEACF1F93CF93DF9316
:1008C000282F30E0F901E859FF4F8491F901E458ED
:1008D000FF4FD491F901E057FF4FC491CC23A1F011
:1008E000162F811185DFEC2FF0E0EE0FFF1FEC5586
:1008F000FF4FA591B4918FB7F894EC91111108C0F6
:10090000D095DE23DC938FBFDF91CF911F910895A7
:10091000DE2BF8CFFC01918D228D892F90E0805C39
:100920009F4F821B91098F7399270895FC01918D28
:10093000828D981731F0828DE80FF11D858D90E042
:1009400008958FEF9FEF0895FC01918D828D981788
:1009500061F0A28DAE0FBF2FB11D5D968C91928D6F
:100960009F5F9F73928F90E008958FEF9FEF0895A0
:10097000FC01538D448D252F30E0842F90E0821BA5
:10098000930B541710F0CF96089501970895FC012A
:10099000A48DA80FB92FB11DA35ABF4F2C91848DE0
:1009A00090E001968F739927848FA689B7892C933D
:1009B000A089B1898C91837080648C93938D848D90
:1009C000981306C00288F389E02D80818F7D808393
:1009D0000895CF93DF93EC01888D8823B1F0AA8925
:1009E000BB89E889F9898C9185FD03C0808186FDEA
:1009F0000CC00FB607FCF7CF8C9185FFF2CF80813A
:100A000085FFEDCFCE01C3DFEACFDF91CF9108950F
:100A1000EF92FF920F931F93CF93DF93EC0181E04E
:100A2000888F9B8D8C8D98131AC0E889F9898081F5
:100A300085FF15C09FB7F894EE89FF896083E88928
:100A4000F98980818370806480839FBF81E090E01A
:100A5000DF91CF911F910F91FF90EF900895F62EA7
:100A60000B8D10E00F5F1F4F0F731127E02E8C8D41
:100A70008E110BC00FB607FCFACFE889F989808187
:100A800085FFF5CFCE0183DFF2CFEB8DEC0FFD2F8D
:100A9000F11DE35AFF4FF0829FB7F8940B8FEA895C
:100AA000FB8980818062D0CFCF92DF92EF92FF925C
:100AB0001F93CF93DF93EC016A017B01122FE8892A
:100AC000F98982E08083C11481EED806E104F10443
:100AD00099F060E079E08DE390E0A70196014FD1B5
:100AE0002150310941095109569547953795279568
:100AF000211580E1380790F0E889F989108260E8D3
:100B000074E88EE190E0A701960139D121503109B6
:100B1000410951095695479537952795EC85FD85EF
:100B20003083EE85FF852083188EEC89FD89108344
:100B3000EA89FB89808180618083EA89FB898081E1
:100B400088608083EA89FB89808180688083EA8964
:100B5000FB8980818F7D8083DF91CF911F91FF90F2
:100B6000EF90DF90CF9008951F920F920FB60F92E3
:100B700011242F938F939F93EF93FF93E091CC02D7
:100B8000F091CD028081E091D202F091D30282FDFA
:100B90001BC090818091D5028F5F8F732091D60208
:100BA000821741F0E091D502F0E0E454FD4F958FBB
:100BB0008093D502FF91EF919F918F912F910F908C
:100BC0000FBE0F901F9018958081F4CF1F920F9247
:100BD0000FB60F9211242F933F934F935F936F9310
:100BE0007F938F939F93AF93BF93EF93FF938CEB80
:100BF00092E0CDDEFF91EF91BF91AF919F918F91E8
:100C00007F916F915F914F913F912F910F900FBE08
:100C10000F901F901895ECEBF2E01382128288EE91
:100C200093E0A0E0B0E084839583A683B78386E752
:100C300092E09183808385EC90E09587848784ECB3
:100C400090E09787868780EC90E0918B808B81EC99
:100C500090E0938B828B82EC90E0958B848B86EC7A
:100C600090E0978B868B118E128E138E148E0895C2
:100C7000AF92BF92CF92DF92EF92FF920F931F93AA
:100C8000CF93DF936C017B018B01040F151FEB01E8
:100C90005E01AE18BF08C017D10759F06991D6019F
:100CA000ED91FC910190F081E02DC6010995892B11
:100CB00079F7C501DF91CF911F910F91FF90EF90D0
:100CC000DF90CF90BF90AF9008954F925F926F9258
:100CD0007F92AF92BF92CF92DF92EF92FF920F93EB
:100CE0001F93CF93DF93CDB7DEB729013A019B0164
:100CF000AC01241935094609570989899A89AB89B4
:100D0000BC89BC01CD016A197B098C099D091CD0E5
:100D1000A8019701241935094609570952D0CA017B
:100D2000B9016A0D7B1D8C1D9D1DDF91CF911F9117
:100D30000F91FF90EF90DF90CF90BF90AF907F909A
:100D40006F905F904F900895DB018F939F9355D0E4
:100D5000BF91AF91A29F800D911DA39F900DB29F57
:100D6000900D11240895991B79E004C0991F9617DE
:100D700008F0961B881F7A95C9F780950895A1E21F
:100D80001A2EAA1BBB1BFD010DC0AA1FBB1FEE1F05
:100D9000FF1FA217B307E407F50720F0A21BB30B50
:100DA000E40BF50B661F771F881F991F1A9469F7CC
:100DB00060957095809590959B01AC01BD01CF0128
:100DC0000895052E97FB16F400940FD057FD05D01B
:100DD000D6DF07FC02D046F408C050954095309508
:100DE00021953F4F4F4F5F4F089590958095709597
:100DF00061957F4F8F4F9F4F08950FD0A59F900D06
:100E0000B49F900DA49F800D911D11240895EE0FA5
:100E1000FF1F0590F491E02D0994A29FB001B39FAC
:100E2000C001A39F700D811D1124911DB29F700DF3
:0C0E3000811D1124911D0895F894FFCF3E
:100E3C006701000102030405060708090A0B0C0DE3
:100E4C000E0F101112131415161718191A1B1C1D3E
:100E5C001E1F202122232425262728292A2B2C2D2E
:100E6C002E2F303132333435363738393A3B3C3D1E
:100E7C003E3F404142434445464748494A4B4C4D0E
:100E8C004E4F505152535455565758595A5B5C5DFE
:100E9C005E5F606162636465666768696A6B6C6DEE
:100EAC006E6F707172737475767778797A7B7C7DDE
:100EBC007E7F808182838485868788898A8B8C8DCE
:100ECC008E8F909192939495969798999A9B9C9DBE
:100EDC009E9FA0A1A2A3A4A5A6A7A8A9AAABACADAE
:100EEC00AEAFB0B1B2B3B4B3B2B1B0AFAEADACABF8
:100EFC00AAA9A8A7A6A5A4A3A2A1A09F9E9D9C9BBE
:100F0C009A999897969594939291908F8E8D8C8BAD
:100F1C008A898887868584838281807F7E7D7C7B9D
:100F2C007A797877767574737271706F6E6D6C6B8D
:100F3C006A696867666564636261605F5E5D5C5B7D
:100F4C005A595857565554535251504F4E4D4C4B6D
:100F5C004A494847464544434241403F3E3D3C3B5D
:100F6C003A393837363534333231302F2E2D2C2B4D
:100F7C002A292827262524232221201F1E1D1C1B3D
:100F8C001A191817161514131211100F0E0D0C0B2D
:100F9C000A0908070605040302010000000001000D
:100FAC0087020000000008053806B804E9048A042A
:040FBC00A4049604EF
:00000001FF
